{
  "contractName": "Events",
  "abi": [
    {
      "anonymous": false,
      "inputs": [
        {
          "indexed": false,
          "internalType": "uint256",
          "name": "id",
          "type": "uint256"
        },
        {
          "indexed": false,
          "internalType": "string",
          "name": "data",
          "type": "string"
        }
      ],
      "name": "logData",
      "type": "event"
    },
    {
      "anonymous": true,
      "inputs": [
        {
          "indexed": true,
          "internalType": "uint256",
          "name": "id",
          "type": "uint256"
        },
        {
          "indexed": false,
          "internalType": "string",
          "name": "data",
          "type": "string"
        }
      ],
      "name": "logDataAnonym",
      "type": "event"
    },
    {
      "anonymous": false,
      "inputs": [
        {
          "indexed": true,
          "internalType": "uint256",
          "name": "id",
          "type": "uint256"
        },
        {
          "indexed": false,
          "internalType": "string",
          "name": "data",
          "type": "string"
        }
      ],
      "name": "logDataIndexed",
      "type": "event"
    },
    {
      "anonymous": false,
      "inputs": [
        {
          "indexed": false,
          "internalType": "uint256",
          "name": "id",
          "type": "uint256"
        }
      ],
      "name": "logFallback",
      "type": "event"
    },
    {
      "anonymous": false,
      "inputs": [
        {
          "indexed": false,
          "internalType": "uint256",
          "name": "id",
          "type": "uint256"
        }
      ],
      "name": "logUnused",
      "type": "event"
    },
    {
      "anonymous": false,
      "inputs": [
        {
          "indexed": true,
          "internalType": "uint256",
          "name": "id",
          "type": "uint256"
        }
      ],
      "name": "logUnusedIndexed",
      "type": "event"
    },
    {
      "stateMutability": "nonpayable",
      "type": "fallback"
    },
    {
      "inputs": [],
      "name": "counter",
      "outputs": [
        {
          "internalType": "uint256",
          "name": "",
          "type": "uint256"
        }
      ],
      "stateMutability": "view",
      "type": "function",
      "constant": true
    },
    {
      "inputs": [],
      "name": "counterAnonym",
      "outputs": [
        {
          "internalType": "uint256",
          "name": "",
          "type": "uint256"
        }
      ],
      "stateMutability": "view",
      "type": "function",
      "constant": true
    },
    {
      "inputs": [],
      "name": "counterFallback",
      "outputs": [
        {
          "internalType": "uint256",
          "name": "",
          "type": "uint256"
        }
      ],
      "stateMutability": "view",
      "type": "function",
      "constant": true
    },
    {
      "inputs": [],
      "name": "counterIndexed",
      "outputs": [
        {
          "internalType": "uint256",
          "name": "",
          "type": "uint256"
        }
      ],
      "stateMutability": "view",
      "type": "function",
      "constant": true
    },
    {
      "inputs": [],
      "name": "counterUnused",
      "outputs": [
        {
          "internalType": "uint256",
          "name": "",
          "type": "uint256"
        }
      ],
      "stateMutability": "view",
      "type": "function",
      "constant": true
    },
    {
      "inputs": [],
      "name": "counterUnusedIndexed",
      "outputs": [
        {
          "internalType": "uint256",
          "name": "",
          "type": "uint256"
        }
      ],
      "stateMutability": "view",
      "type": "function",
      "constant": true
    },
    {
      "inputs": [
        {
          "internalType": "string",
          "name": "_data",
          "type": "string"
        }
      ],
      "name": "log",
      "outputs": [],
      "stateMutability": "nonpayable",
      "type": "function"
    },
    {
      "inputs": [
        {
          "internalType": "string",
          "name": "_data",
          "type": "string"
        }
      ],
      "name": "logAnonym",
      "outputs": [],
      "stateMutability": "nonpayable",
      "type": "function"
    },
    {
      "inputs": [
        {
          "internalType": "string",
          "name": "_data",
          "type": "string"
        }
      ],
      "name": "logIndexed",
      "outputs": [],
      "stateMutability": "nonpayable",
      "type": "function"
    },
    {
      "inputs": [
        {
          "internalType": "string",
          "name": "_data",
          "type": "string"
        }
      ],
      "name": "Unused",
      "outputs": [],
      "stateMutability": "nonpayable",
      "type": "function"
    },
    {
      "inputs": [
        {
          "internalType": "string",
          "name": "_data",
          "type": "string"
        }
      ],
      "name": "UnusedIndexed",
      "outputs": [],
      "stateMutability": "nonpayable",
      "type": "function"
    }
  ],
  "bytecode": "0x6080604052600160005560018055600160025560016003556001600455600160055534801561002d57600080fd5b506106538061003d6000396000f3fe608060405234801561001057600080fd5b50600436106100ad5760003560e01c80637d02a13c116100715780637d02a13c146102a25780637e0006791461031b57806397a8ef6f14610394578063ced0f9fd146103b2578063f81d58de146103d0578063f8b34ada146103ee576100ae565b80632527c63b146100fb57806341304fac146101745780634f4056cc146101ed57806361bc221a14610266578063716e636514610284576100ae565b5b7f9e89d637496381eb45902ee56987ee212e6ea81b474a98f3baa1ba2b959307296005546040518082815260200191505060405180910390a1600560008154809291906001019190505550005b6101726004803603602081101561011157600080fd5b810190808035906020019064010000000081111561012e57600080fd5b82018360208201111561014057600080fd5b8035906020019184600183028401116401000000008311171561016257600080fd5b909192939192939050505061040c565b005b6101eb6004803603602081101561018a57600080fd5b81019080803590602001906401000000008111156101a757600080fd5b8201836020820111156101b957600080fd5b803590602001918460018302840111640100000000831117156101db57600080fd5b9091929391929390505050610488565b005b6102646004803603602081101561020357600080fd5b810190808035906020019064010000000081111561022057600080fd5b82018360208201111561023257600080fd5b8035906020019184600183028401116401000000008311171561025457600080fd5b909192939192939050505061050a565b005b61026e61054f565b6040518082815260200191505060405180910390f35b61028c610555565b6040518082815260200191505060405180910390f35b610319600480360360208110156102b857600080fd5b81019080803590602001906401000000008111156102d557600080fd5b8201836020820111156102e757600080fd5b8035906020019184600183028401116401000000008311171561030957600080fd5b909192939192939050505061055b565b005b6103926004803603602081101561033157600080fd5b810190808035906020019064010000000081111561034e57600080fd5b82018360208201111561036057600080fd5b8035906020019184600183028401116401000000008311171561038257600080fd5b90919293919293905050506105aa565b005b61039c610605565b6040518082815260200191505060405180910390f35b6103ba61060b565b6040518082815260200191505060405180910390f35b6103d8610611565b6040518082815260200191505060405180910390f35b6103f6610617565b6040518082815260200191505060405180910390f35b6002547f9756d74a8d8fd51baec0c24767105af3e58131f35e67b3d0d9bec4e7b4bf633d838360405180806020018281038252848482818152602001925080828437600081840152601f19601f820116905080830192505050935050505060405180910390a26002600081548092919060010191905055505050565b7f0560bb0e79da1dcc39379d93509dcd638d1d90387a2504d53b0a58d728c1d436600054838360405180848152602001806020018281038252848482818152602001925080828437600081840152601f19601f82011690508083019250505094505050505060405180910390a160008081548092919060010191905055505050565b6004547f649c0692724e358976740577d1bea18c44ba8e646a532a17b0faad2d3b43370960405160405180910390a26004600081548092919060010191905055505050565b60005481565b60045481565b7f9af10d64e0a8089ede8e9e2f20f3b60f6e3d93294fd2067650fe2d0b37ee2b3c6003546040518082815260200191505060405180910390a16003600081548092919060010191905055505050565b600154828260405180806020018281038252848482818152602001925080828437600081840152601f19601f820116905080830192505050935050505060405180910390a16001600081548092919060010191905055505050565b60025481565b60055481565b60035481565b6001548156fea26469706673582212205e61277852ff7acfadd5f2f202a45e8de5a3cbdd30466982dfec723cb7293e2564736f6c63430007010033",
  "immutableReferences": {},
  "source": "// SPDX-License-Identifier: MIT\r\npragma solidity 0.7.1;\r\n\r\ncontract Events{\r\n\r\n    uint public counter = 1;\r\n    uint public counterAnonym = 1;\r\n    uint public counterIndexed = 1;\r\n    uint public counterUnused = 1;\r\n    uint public counterUnusedIndexed = 1;\r\n    uint public counterFallback = 1;\r\n\r\n    event logDataAnonym(uint indexed id, string  data)anonymous;\r\n    event logDataIndexed(uint indexed id, string  data);\r\n    event logData(uint id, string  data);\r\n    event logUnused(uint id);\r\n    event logUnusedIndexed(uint indexed id);\r\n    event logFallback(uint id);\r\n\r\n    fallback() external {\r\n        emit logFallback(counterFallback);\r\n        counterFallback++;\r\n    }\r\n\r\n    function log(string calldata  _data) external {\r\n        emit logData(counter, _data);\r\n        counter++;\r\n    }\r\n\r\n    function logAnonym(string calldata  _data) external {\r\n        emit logDataAnonym(counterAnonym, _data);\r\n        counterAnonym++;\r\n    }\r\n\r\n    function logIndexed(string calldata  _data) external {\r\n        emit logDataIndexed(counterIndexed, _data);\r\n        counterIndexed++;\r\n    }\r\n\r\n    function Unused(string calldata  _data) external {\r\n        emit logUnused(counterUnused);\r\n        counterUnused++;\r\n    }\r\n\r\n    function UnusedIndexed(string calldata  _data) external {\r\n        emit logUnusedIndexed(counterUnusedIndexed);\r\n        counterUnusedIndexed++;\r\n    }\r\n}\r\n",
  "sourcePath": "C:/Users/perik/thesisV1/test/contracts/Events.sol",
  "compiler": {
    "name": "solc",
    "version": "0.7.1+commit.f4a555be.Emscripten.clang"
  },
  "schemaVersion": "3.2.5",
  "updatedAt": "2021-02-26T17:58:07.777Z",
  "networkType": "ethereum",
  "devdoc": {
    "kind": "dev",
    "methods": {},
    "version": 1
  },
  "userdoc": {
    "kind": "user",
    "methods": {},
    "version": 1
  }
}