{
  "contractName": "Exp",
  "abi": [
    {
      "anonymous": false,
      "inputs": [
        {
          "indexed": true,
          "internalType": "uint256",
          "name": "id",
          "type": "uint256"
        }
      ],
      "name": "log",
      "type": "event"
    },
    {
      "stateMutability": "nonpayable",
      "type": "fallback"
    },
    {
      "inputs": [],
      "name": "counter",
      "outputs": [
        {
          "internalType": "uint256",
          "name": "",
          "type": "uint256"
        }
      ],
      "stateMutability": "view",
      "type": "function",
      "constant": true
    }
  ],
  "bytecode": "0x6080604052600160005534801561001557600080fd5b5060c6806100246000396000f3fe6080604052348015600f57600080fd5b5060043610602b5760003560e01c806361bc221a14606e57602c565b5b6000547ff82c50f1848136e6c140b186ea0c768b7deda5efffe42c25e96336a90b26c74460405160405180910390a26000808154809291906001019190505550005b6074608a565b6040518082815260200191505060405180910390f35b6000548156fea26469706673582212204ddfdba7c44fe852a1b7fd1b6fe927324a62b61fa551912cfee2f5abaad08f1064736f6c63430007010033",
  "immutableReferences": {},
  "source": "// SPDX-License-Identifier: MIT\r\npragma solidity 0.7.1;\r\n\r\ncontract Exp{\r\n    uint public counter = 1;\r\n\r\n    event log(uint indexed id);\r\n\r\n    fallback() external {\r\n        emit log(counter);\r\n        counter++;\r\n    }\r\n}\r\n",
  "sourcePath": "C:/Users/perik/thesisV1/test/contracts/Exp.sol",
  "compiler": {
    "name": "solc",
    "version": "0.7.1+commit.f4a555be.Emscripten.clang"
  },
  "schemaVersion": "3.2.5",
  "updatedAt": "2021-02-26T17:58:07.762Z",
  "networkType": "ethereum",
  "devdoc": {
    "kind": "dev",
    "methods": {},
    "version": 1
  },
  "userdoc": {
    "kind": "user",
    "methods": {},
    "version": 1
  }
}