{
  "contractName": "Storage",
  "abi": [
    {
      "stateMutability": "nonpayable",
      "type": "fallback"
    },
    {
      "inputs": [],
      "name": "str",
      "outputs": [
        {
          "internalType": "string",
          "name": "",
          "type": "string"
        }
      ],
      "stateMutability": "view",
      "type": "function",
      "constant": true
    },
    {
      "inputs": [
        {
          "internalType": "string",
          "name": "_data",
          "type": "string"
        }
      ],
      "name": "storeStr",
      "outputs": [],
      "stateMutability": "nonpayable",
      "type": "function"
    },
    {
      "inputs": [],
      "name": "reset",
      "outputs": [],
      "stateMutability": "nonpayable",
      "type": "function"
    }
  ],
  "bytecode": "0x60806040526040518060400160405280600181526020017f66000000000000000000000000000000000000000000000000000000000000008152506000908051906020019061004f929190610062565b5034801561005c57600080fd5b506100ff565b828054600181600116156101000203166002900490600052602060002090601f016020900481019282601f106100a357805160ff19168380011785556100d1565b828001600101855582156100d1579182015b828111156100d05782518255916020019190600101906100b5565b5b5090506100de91906100e2565b5090565b5b808211156100fb5760008160009055506001016100e3565b5090565b61032c8061010e6000396000f3fe608060405234801561001057600080fd5b50600436106100455760003560e01c8063c15bae8414610048578063ca4a3eb5146100cb578063d826f88f1461014457610046565b5b005b61005061014e565b6040518080602001828103825283818151815260200191508051906020019080838360005b83811015610090578082015181840152602081019050610075565b50505050905090810190601f1680156100bd5780820380516001836020036101000a031916815260200191505b509250505060405180910390f35b610142600480360360208110156100e157600080fd5b81019080803590602001906401000000008111156100fe57600080fd5b82018360208201111561011057600080fd5b8035906020019184600183028401116401000000008311171561013257600080fd5b90919293919293905050506101ec565b005b61014c610202565b005b60008054600181600116156101000203166002900480601f0160208091040260200160405190810160405280929190818152602001828054600181600116156101000203166002900480156101e45780601f106101b9576101008083540402835291602001916101e4565b820191906000526020600020905b8154815290600101906020018083116101c757829003601f168201915b505050505081565b8181600091906101fd929190610211565b505050565b60008061020f9190610291565b565b828054600181600116156101000203166002900490600052602060002090601f016020900481019282601f1061025257803560ff1916838001178555610280565b82800160010185558215610280579182015b8281111561027f578235825591602001919060010190610264565b5b50905061028d91906102d9565b5090565b50805460018160011615610100020316600290046000825580601f106102b757506102d6565b601f0160209004906000526020600020908101906102d591906102d9565b5b50565b5b808211156102f25760008160009055506001016102da565b509056fea264697066735822122027ddd6ef0adb0de4a31f9c2052833bfbc204044a2048e13ac5780eb71067010a64736f6c63430007010033",
  "immutableReferences": {},
  "source": "// SPDX-License-Identifier: MIT\r\npragma solidity 0.7.1;\r\n\r\ncontract Storage{\r\n    string public str = 'f';\r\n    //EDW NA MPEI I FALLBACK ME ENA EVENT KAI ENAN COUNTER GT STO ALLO THA EXOUME EIDI ENAN COUNTER\r\n    fallback() external {}\r\n\r\n    function storeStr(string calldata _data) external{\r\n        str = _data;\r\n    }\r\n\r\n    function reset () external {\r\n      delete str;\r\n    }\r\n}\r\n",
  "sourcePath": "C:/Users/perik/thesisV1/test/contracts/Storage.sol",
  "compiler": {
    "name": "solc",
    "version": "0.7.1+commit.f4a555be.Emscripten.clang"
  },
  "schemaVersion": "3.2.5",
  "updatedAt": "2021-02-26T17:58:07.764Z",
  "networkType": "ethereum",
  "devdoc": {
    "kind": "dev",
    "methods": {},
    "version": 1
  },
  "userdoc": {
    "kind": "user",
    "methods": {},
    "version": 1
  }
}